:100000003FC061C060C05FC05EC05DC05CC05BC01F
:100010005AC059C058C057C056C02CC254C053C053
:1000200052C051C050C04FC04EC000003A0037000F
:100030000000310000003B003800000032000000EA
:1000400000000000000200000001030400000000A6
:1000500000003900360000003000040401010404EF
:10006000040404020202020202020201010202016D
:1000700004081020400102040810204080048A0374
:1000800011241FBECFEDCDBF10E0A0E6B0E0E0EA46
:10009000F7E002C005900D92A237B107D9F720E032
:1000A000A2E7B0E001C01D92A638B207E1F710E068
:1000B000C0E4D0E003C02197FE016AD3CF33D1075B
:1000C000D1F7F2D26BC39CCF87FD8FEF90E0FC019C
:1000D000E459FF4F2491FC01E65AFF4FE491EE23CF
:1000E00071F0F0E0EE0FFF1FE05BFF4FA591B491C0
:1000F000EC91E22381E090E021F480E0089580E03B
:1001000090E0089587FD8FEF90E0FC01E25CFF4FE7
:100110003491FC01E459FF4F2491FC01E65AFF4F52
:10012000E491EE23B9F0332329F03130A1F480B704
:100130008F7780BFF0E0EE0FFF1FEC5CFF4FA591C3
:10014000B4918FB7611117C0F894EC9120952E23CC
:100150002C938FBF0895323019F480B78F7DE9CF8B
:10016000333021F48FB58F778FBDE4CF343011F762
:100170008FB58F7DF9CFF894EC912E2BE9CFCF93EB
:10018000DF93CCE7D0E060E08885BCDF60E0898564
:10019000B9DF61E08885B6DF61E08985DF91CF91C5
:1001A000B1CFCF93DF93CCE7D0E061E08885AADFC1
:1001B00061E08985A7DF60E08985A4DF60E088854C
:1001C000DF91CF919FCFCF93DF9387FD8FEF90E0AB
:1001D000FC01E459FF4F2491865A9F4FFC01849102
:1001E0008823C9F090E0880F991FFC01E65DFF4F5E
:1001F000A591B491FC01EC5CFF4FC591D4916111C4
:100200000DC09FB7F8948C91209582238C938881A0
:10021000282328839FBFDF91CF910895623051F446
:100220009FB7F8943C91822F809583238C93E8812B
:100230002E2BEFCF8FB7F894EC912E2B2C938FBFF2
:10024000EACF0F931F93CF93DF93D82FC8E060E0DE
:100250008091840057DF0D2F0D2E000C110B61E0F3
:10026000D0FF60E0809185004DDF15950795D02F78
:1002700061E08091840046DFC15049F760E08091E1
:10028000840040DF61E0809185003CDF61E0809187
:10029000840038DF60E08091850095DF83EC90E09A
:1002A0000197F1F7809185000FDF8C01811108C063
:1002B00061E08091850087DF60E08091850022DF2A
:1002C000C3ECD0E0CE010197F1F761E080918500A9
:1002D0007ADF2197F1F7C8019927DF91CF911F911C
:1002E0000F9108950F931F93CF93DF938C0159DFE4
:1002F00080E4A7DF44DF55DF80918100A2DFE801C1
:100300000C5F1F4F89919DDFC017D107D9F737DFE9
:1003100048DF8091820095DFDF91CF911F910F918F
:100320002ECFEF92FF920F931F93CF93DF93CDB712
:10033000DD27C450CDBF30918300FC014CE750E075
:10034000CE0101967C01BF016C5F7F4F2191DA01E4
:100350002D93AD018F0101501109D8012C91230F6C
:10036000D7012D937D01E617F70781F7BBDFCC5F3F
:10037000CDBFDF91CF911F910F91FF90EF90089526
:100380000F931F93CF93DF93CDB7DD27C850CDBF19
:10039000FC0168E572E0E8D1CB012AE030E0B90168
:1003A000E3D1482F192FCF016CE370E0DDD1CB01F1
:1003B000B901DAD14D838E836CE370E0C4D1DF01E3
:1003C000A81BB90B842F912F68E572E0BCD1AD0159
:1003D000481B590BCA01B901C7D1CB01B901C4D11E
:1003E0008F83CF01B901C0D1888730918300AE01DE
:1003F0004B5F5F4F6CE770E0DE0111968E01075F87
:100400001F4FCD01FA012191AF01E22FF0E0EB592E
:10041000FF4F2081FB012193BF01230F2D93401734
:10042000510781F75FDFC85FCDBFDF91CF911F918B
:100430000F9108950F931F93CF93DF93182FCCE75D
:10044000D0E0E82FF0E0E458FF4F10820F81A9DEE2
:1004500084E4F7DE94DEA5DE812F806CF2DE802F4F
:10046000F0DE8DDE9EDE8E81ECDEDF91CF911F917E
:100470000F9185CE1F920F920FB60F9211240F93FA
:100480001F932F933F934F935F936F937F938F931C
:100490009F93AF93BF93CF93DF93EF93FF9389EF36
:1004A00086BF80916300909164000197C9F090939A
:1004B000640080936300FF91EF91DF91CF91BF9132
:1004C000AF919F918F917F916F915F914F913F91EC
:1004D0002F911F910F910F900FBE0F901F901895A5
:1004E00089E190E0909364008093630089E0ECDD03
:1004F00021E0892B09F020E02093750088E0E4DDFD
:100500008C0181E00115110509F080E080937600EF
:1005100080917900882309F44EC090917B0089175F
:1005200009F454C08150809379000115110529F018
:1005300080917500882309F45CC08091720081115C
:100540002FC0809173009091740021E0209372007D
:1005500020917B003FEF320F30937900309175008E
:10056000332329F0CC969093740080937300012B71
:1005700051F48091730090917400885A9D4F90932C
:1005800074008093730080917300909174008533A0
:10059000974130F01092740010927300209379000C
:1005A0008091730090917400EBDE80E8809383006B
:1005B0008CE790E0B6DE8091610090916200019737
:1005C000D9F0909362008093610075CFC09177005D
:1005D000D0917800209749F061E08CE093DD21977D
:1005E000D0937800C0937700A0CF60E08CE08ADDE4
:1005F0009CCF10927200D4CF85E090E0909362007F
:100600008093610080917900811155CF80916000C5
:10061000882309F442C080917A0090E0909378009A
:100620008093770080917600811104C080917500DD
:10063000882341F010927400109273001092780099
:1006400010927700C0917300D09174002097D1F47C
:1006500060E08DE057DD80917B008093790081E040
:1006600080937200809173009091740089DE809174
:100670006000811116C080E8809383008CE790E0D1
:1006800050DE19CF61E08DE03DDD2197D0937400FD
:10069000C093730010926000E5CF81E0809360000A
:1006A000E1CF10928300EACF83E080BF83BF7894CC
:1006B00062E088E088DD62E089E085DD61E08DE070
:1006C00082DD61E08CE07FDD789489EF86BF82E097
:1006D00080BF84E083BF81E089BF80E0ABDE81E042
:1006E000A9DE82E0A7DE83E0A5DE10927C001092F6
:1006F0007D0010927E0010927F0080E48093800045
:1007000080EC809381008FE8809382008CE790E0FA
:1007100008DEFFCFCF93DF93CCE7D0E084E088877B
:1007200085E0898761E084E04EDD61E089854BDD0D
:1007300088E280937B0092E390937A008093790023
:10074000DF91CF9108950024552704C0080E591F4A
:10075000880F991F009729F076956795B8F3710572
:10076000B9F7802D952F0895AA1BBB1B51E107C037
:10077000AA1FBB1FA617B70710F0A61BB70B881F31
:10078000991F5A95A9F780959095BC01CD010895C0
:10079000EE0FFF1F0590F491E02D0994F894FFCF20
:1007A00001050019003F065B4F666D7D077F6F00F6
:0207B000400007
:00000001FF
